:10000000C6EF04F00000000000EF00F00000000068
:0A0010000000000000000000F3D71C
:0A001C00210E0D6E0D2EFED712000E
:100026000F0E0C6E470E0D6E0D2EFED70C2EFCD746
:06003600000000001200B2
:06003C00000000001200AC
:0E004200026A016A006A086A036A000E120070
:100050004FBE02D0839E01D0838E4FBC02D0839CC2
:1000600001D0838C4FBA02D0839A01D0838A4FB8D3
:1000700002D0839801D083882EB002D0848401D02E
:1000800084948482DBDF84924FB602D0839E01D0B9
:10009000838E4FB402D0839C01D0838C4FB202D0A8
:1000A000839A01D0838A4FB002D0839801D083888D
:1000B0002EB002D0848401D084948482BFDF8492E5
:0C00C0002EA002D0B0DF01D0A9DF12009A
:1000CC000B840BAE71EF00F0010E036E026A016A35
:0A00DC00006A0A360232FF0E12001D
:0800E6000AAE029E000E12009A
:1000EE000B800BAE83EF00F0026A0AAEFF0E026EBB
:0C00FE00016E006E0A360232FF0E120086
:10010A000B820BAE8FEF00F003680268016800688B
:08011A000A360232FF0E12004A
:100122000C6A0E6A0250D8A4AAEF00F001C002F0D5
:1001320000C001F0006A0E860250D8A4AAEF00F0B7
:1001420001C002F0016A0E960E880250D8B4BCEFCC
:1001520000F00E50035ED8A4D8A0C1EF00F0D890F2
:1001620002BEC6EF00F0003601360236032EB1EFB2
:1001720000F0C1EF00F0010E0C6E62DFC9EF00F07B
:10018200020E0C6EA2DFC9EF00F0040E0C6EAADFA5
:02019200120059
:0C0194000E0E0D6E0D2EFED700001200A6
:0C01A0002E904CC04FF054DF2E80120057
:1001AC000FD0800E4C6E19D0C00E4C6E16D0940E23
:1001BC004C6E13D0D40E4C6E10D0800E4C6E0DD0F5
:1001CC004C50010AEEE04C50020AEEE04C50030A8F
:1001DC00EEE04C50040AEEE0F0D74D04006E4C50AB
:1001EC00002600C04CF02E8000C04FF02BDF2E906C
:0A01FC004EC04FF027DF2E801200E6
:10020600020E0C6E490E0D6E0D2EFED70C2EFCD76F
:06021600000000001200D0
:10021C00086A096A100E0C6E01340836093604504F
:10022C00085E0550D8A0053C095ED8B007D0045034
:10023C0008260550D8B0053C0926D8900036013662
:06024C000C2EEAD712009F
:080252000B6A0B86FF0E12007F
:10025A00C26A151C006E0050C116070EC012C08E6D
:10026A0045C000F000360090003600900050C212DF
:10027A00C2808BDFC282C2A201D0FDD7C4CF01F0F7
:0E028A00006AC3500012000E0112C290120052
:100298000900F5CFE6FF0006FBE10106F9E11200CF
:1002A800969296949598959A959C959E8492849406
:1002B800839E839C839A8398B2DEB1DEB0DE838A04
:1002C80083888482B7DE8492AADE8482B3DE849235
:1002D800A6DE8482AFDE8492A2DE83988482AADEC0
:1002E80084929DDE8482A6DE8492839A838E8482A1
:1002F800A1DE849294DE839E838884829BDE84922E
:100308008398848297DE84928ADE848293DE849244
:10031800838884828FDE849282DE839884828ADE58
:100328008492838E838C838A8388848283DE8492FA
:0603380076DE2E801200AB
:10033E000050086E0150006E016A026A036A0B6A71
:10034E000C6A960E036E0A6A00C001F008C000F037
:08035E00086A026ADFDE1200EA
:100366004B6A47C001F0010E006E015004E00036F2
:100376000090FF0FFBD700C04AF045C0E9FF46C01A
:10038600EAFF0050EE14016E0152010ED8A4000ED1
:10039600006E4950001A18E04850000804E230DFA9
:1003A6002FDF4806F9D745C0E9FF46C0EAFF4A50A5
:1003B600EE14016E0152010ED8A4000E006E4950D3
:0E03C600001A02E0FF0E4B6E4BC000F012005A
:1003D400476A47504524E96E000E4620EA6EEE5205
:1003E4000BE047504524E96E000E4620EA6EEECF3E
:0A03F4004CF0D4DE472AEDD71200CA
:1003FE000FD0800E456E19D0C00E456E16D0940EDD
:10040E00456E13D0D40E456E10D0800E456E0DD0B5
:10041E004550010AEEE04550020AEEE04550030A4F
:10042E00EEE04550040AEEE0F0D74604006E45506B
:10043E00002600C045F000C04FF003DE2E90496A42
:10044E0049504724E96E000E4820EA6EEE520BE04A
:10045E0049504724E96E000E4820EA6EEECF4CF06C
:0A046E0098DE492AEDD72E80120017
:100478000A6A0350D8A40A800750D8A40A820A50EE
:10048800D8B49FEF02F0030AD8B458EF02F00AB0CC
:1004980053EF02F006AE9DEF02F09BEF02F002AEC2
:1004A8009BEF02F09DEF02F00250800B0A6E029E55
:1004B8000650800B069E0A18D8B469EF02F00A505D
:1004C800D8B49BEF02F09DEF02F00750035CD8B45C
:1004D80073EF02F0D8A08FEF02F095EF02F006500C
:1004E800025CD8B47DEF02F0D8A08FEF02F095EF50
:1004F80002F00550015CD8B487EF02F0D8A08FEF66
:1005080002F095EF02F00450005CD8B49FEF02F0BF
:10051800D8B095EF02F00A52D8B49DEF02F09BEFE5
:1005280002F00A52D8B49BEF02F09DEF02F0D88097
:0E0538001200D8901200D880D8841200120051
:10054600500E4F6E82DD476A47500A0811E3C50E0A
:100556004724F66E0D0EF76E000EF722000EF86EAB
:10056600000EF8220900F5CF4CF017DE472AECD72B
:10057600020E4F6E6ADD45C04CF046C04DF0020ECD
:060586004E6E11DE1200B2
:10058C000450000A12E10550000A0FE10650000A5F
:10059C000CE10750000A09E1FF0E006EFF0E016E20
:1005AC007F0E026EFF0E036EA4D0086A096A075014
:1005BC00D8B471EF03F00350D8B475EF03F00250C8
:1005CC0006180A6E028E068E0E6A02C008F001C072
:1005DC000CF000C00DF004500D5E0550D8A0053C89
:1005EC000C5E0650D8A0063C085E086A0C6A0D6AC0
:1005FC00D8A008EF03F0D890023201320032083252
:10060C00010E0E6E0750035ED8A015EF03F07E0EA0
:10061C000E240326D8B079EF03F01BEF03F07E0E07
:10062C000E240326D8A07DEF03F0180E0B6E0D36AA
:10063C000C3608360036013602360E360450005E93
:10064C000550D8A0053C015E0650D8A0063C025EC1
:10065C0006340E120EA036EF03F00D8041EF03F0BE
:10066C00045000260550D8B0053C01260650D8B0E1
:10067C00062802260D900B2E1DEF03F067EF03F0FA
:10068C00D8900036013602360E360450005E055006
:10069C00D8A0053C015E0650D8A0063C025E06348C
:1006AC000E10010B0D26D8B00C2AD8B4082AD8A4E9
:1006BC0067EF03F008320C320D32032AD8B479EF0D
:1006CC0003F00AAE089E0850026E0C50016E0D50DD
:1006DC00006E7FEF03F0010EB6DD7FEF03F0020E2C
:1006EC00AADC7FEF03F0040E0ADD7FEF03F0080EA7
:0406FC00E7DC120025
:10070000086A096A000E0762036405EF04F00250EC
:1007100006180A6E075003267E0ED8A096EF03F047
:10072000035ED8B009EF04F09AEF03F0035ED8A09F
:100730000DEF04F0028E068E02C00EF001C00BF029
:1007400000C00DF000500402F4CF0CF0015005027F
:10075000F4CF00F0F3CF08F00402F3500C26F4506D
:100760000822000E00220D500502F3500C26F45012
:100770000822000E002202500402F3500826F45012
:10078000002202500502016A000E0122F3500026E9
:10079000F45001220D500602F3500826F4500022B6
:1007A000026A000E012202220B500602F3500026BC
:1007B000F4500122000E02220E500602F3500126D0
:1007C000F450022202BEEDEF03F008360036013687
:1007D00002360306D8B40DEF04F000EF04F0D88021
:1007E000800E08640030000E002201220222D8A0F0
:1007F00000EF04F0023201320032034A09EF04F044
:100800000AAE029E000E0FEF04F0010E1ADC0FEF8D
:1008100004F0020E7ADC0FEF04F0040E57DC120035
:10082000496A050E495C0AE249504724E16E000E10
:100830004820E26E200EE66E492AF3D7495047243D
:10084000E16E000E4820E26EE66A490649504724F0
:100850004A6E000E48204B6E0A0E046E000E056EA6
:1008600045C000F046C001F0D9DC08C000F009C066
:1008700001F0300E00264AC0E1FF4BC0E2FF00C08D
:10088000E6FF0A0E046E000E056E45C000F046C07D
:1008900001F0C4DC00C045F001C046F0000E0118B4
:1008A00002E1000E001801E102D04906CFD7120084
:1008B0000B6A0C6A0A6A0350D8B4A2EF04F0028EE5
:1008C0008E0E035E03BE6AEF04F0D8B46AEF04F044
:1008D000A6EF04F0036C080E035CD8A081EF04F0CF
:1008E000036E013602C001F0026A080E035CD8A054
:1008F00081EF04F00136016A0350D8A4D8908BEF41
:1009000004F00350D8B48BEF04F0D89002320132D7
:10091000032E85EF04F00BBC01A098EF04F0D8A0E3
:1009200098EF04F0012AD8B4022A02BEB5EF04F011
:100930000AAEBBEF04F0021E011E012AD8B4022A3F
:10094000BBEF04F0026A016ABBEF04F00B800BAE50
:10095000BFEF04F0026A0AAEBFEF04F0FF0E026EB2
:10096000016E0A360232BFEF04F0010E0C6E77EC16
:1009700000F0C1EF04F0000E0C6EC1EF04F0FF0EAA
:0C0980000C6E0150006E0250016E12005F
:10098C00E8EC06F08BDC0C0E4F6E28EC00F00C0E35
:10099C00C16E956A938A93889494949A836A376A01
:1009AC00386A926A810E456E0F0E466E050E476EC2
:1009BC00010E486E496AD1DC0050FF0A32E1396AF7
:1009CC003A6A800E3A18006E800E005C02E11E0E30
:1009DC00395C20E2926A080E806E3F0E836E340EF4
:1009EC000C6EF10E0D6E0D2EFED70C2EFCD70000EA
:1009FC000000100E806E370E836E340E0C6EF10EEE
:100A0C000D6E0D2EFED70C2EFCD700000000394ABF
:100A1C003A2AD7D7836A806A010E376E000E386E79
:100A2C00828A810E456E0F0E466E040E476E010EC5
:100A3C00486E496A92DC0050FF0A43E1376A386A13
:100A4C00829A8294010E4F6E28EC00F0396A3A6A51
:100A5C00800E3A18006E800E005C02E1140E395CB8
:100A6C002EE2926A080E806E3F0E836E340E0C6E70
:100A7C00F10E0D6E0D2EFED70C2EFCD700000000D3
:100A8C00100E806E710E836E340E0C6EF10E0D6EA8
:100A9C000D2EFED70C2EFCD700000000200E806E11
:100AAC00710E836E340E0C6EF10E0D6E0D2EFED784
:100ABC000C2EFCD700000000394A3A2AC9D7836AA9
:100ACC00806A000E381802E1010E3718D8A466D1DE
:100ADC00070E926E836A020E456E2DEC01F000C07B
:100AEC0004F001C005F005320432059E04C000F08C
:100AFC0005C001F01EDC00C03BF001C03CF002C0A0
:100B0C003DF003C03EF0456A2DEC01F012DC00C054
:100B1C002FF001C030F002C031F003C032F0000EF3
:100B2C00046E000E056E480E066E850E076EE2DD35
:100B3C00000E046EC00E056E7F0E066E880E076EDC
:100B4C001FDD00C02FF001C030F002C031F003C037
:100B5C0032F0010E456E2DEC01F09FEC01F000C05F
:100B6C0033F001C034F002C035F003C036F0000E93
:100B7C00046E000E056E480E066E850E076EBADD0D
:100B8C00000E046EC00E056E7F0E066E880E076E8C
:100B9C00F7DC00C033F001C034F002C035F003C004
:100BAC0036F03BC000F03CC001F03DC002F03EC04E
:100BBC0003F078DE00C045F001C046F03F0E476EF2
:100BCC00000E486E27DE010E456E010E466E160EA7
:100BDC00476E000E486E0DDC3F0E456E000E466EE5
:100BEC00EAEC01F0010E456E0B0E466EA6DC1C0EF7
:100BFC00456E000E466EEAEC01F0020E456E010EDB
:100C0C00466E260E476E000E486EFFEC01F02FC0AC
:100C1C0000F030C001F031C002F032C003F042DE0F
:100C2C0000C045F001C046F03F0E476E000E486E06
:100C3C00F1DD3F0E456E000E466EEAEC01F0020E41
:100C4C00456E0B0E466E79DC240E456E000E466E1C
:100C5C00EAEC01F0030E456EFD0E466E1E0E476E5D
:100C6C00000E486EFFEC01F033C000F034C001F010
:100C7C0035C002F036C003F015DE00C045F001C0EF
:100C8C0046F03F0E476E000E486EC4DD3F0E456EBB
:100C9C00000E466EEAEC01F0030E456E070E466E32
:100CAC004CDC2C0E456E000E466EEAEC01F033C0A7
:100CBC0000F034C001F035C002F036C003F0660E0F
:100CCC00046E660E056E660E066E7E0E076E12DDE7
:100CDC0000C004F001C005F002C006F003C007F02C
:100CEC003BC000F03CC001F03DC002F03EC003F040
:100CFC003CEC02F0000ED8B0010E006E00521BE06E
:100D0C00FF0E836E030E0B6E080E0C6E770E0D6EBF
:100D1C000D2EFED70C2EFCD70B2EFAD7831E030EEE
:100D2C000B6E080E0C6E770E0D6E0D2EFED70C2E64
:100D3C00FCD70B2EFAD733C004F034C005F035C005
:100D4C0006F036C007F03BC000F03CC001F03DC0DF
:100D5C0002F03EC003F03CEC02F0000ED8B0010EE5
:100D6C00006E005202E0828419D03BC004F03CC0FB
:100D7C0005F03DC006F03EC007F02FC000F030C0BB
:100D8C0001F031C002F032C003F03CEC02F0000E76
:100D9C00D8B0010E006E0052D8A4829403D6FFD7AF
:100DD00010EE15F0190E006E010E016EAC0EF66EDF
:0E0DE0000D0EF76E000EF86E4CEC01F01200D6
:010DAC003016
:060DAD0054656D703A0070
:020DB3004300FB
:060DB500544D61783A0084
:020DBB004300F3
:060DBD00544D696E3A007E
:020DC3004300EB
:0B0DC500000E11110E000000000000E5
:020000040030CA
:0E000000000C1F1EFF8181FF0FC00FE00F409C
:00000001FF
